:020000040000FA
:04000000ABEF3FF033
:107F56000001AEEF3FF0D3508F0B4009D36E060EF3
:107F6600936E000E956E660E836E100E016E100EE9
:107F7600816E81B2C1EF3FF0C3EF3FF0DDEF3FF01E
:107F860081A2C8EF3FF0CAEF3FF0C3EF3FF0800E8B
:107F96000118D8A4D1EF3FF0D3EF3FF0D7EF3FF071
:107FA600100E016EDBEF3FF0020E0102F350016E80
:107FB60001C081FF81B4E2EF3FF0E4EF3FF0BCEF98
:107FC6003FF081A4E9EF3FF0EBEF3FF0E4EF3FF045
:107FD600100E0118D8A4F2EF3FF0F4EF3FF0F8EFDF
:107FE6003FF0800E016EFAEF3FF0D890013201C0EB
:0A7FF60081FFBCEF3FF000EF00F048
:020000040020DA
:08000000FFFFFFFFFFFFFFFF00
:020000040030CA
:0E0000000008191EFF8185FF0FC00FE00F40A2
:00000001FF
